{
  "_format": "hh-sol-artifact-1",
  "contractName": "NKMT",
  "sourceName": "contracts/NKMT.sol",
  "abi": [
    {
      "inputs": [
        {
          "internalType": "uint256",
          "name": "initialSupply",
          "type": "uint256"
        }
      ],
      "stateMutability": "nonpayable",
      "type": "constructor"
    },
    {
      "inputs": [],
      "name": "AccountAlreadyVerified",
      "type": "error"
    },
    {
      "inputs": [],
      "name": "InvalidAddress",
      "type": "error"
    },
    {
      "inputs": [],
      "name": "NotOwner",
      "type": "error"
    },
    {
      "inputs": [],
      "name": "OnlyOneTokenAllowed",
      "type": "error"
    },
    {
      "anonymous": false,
      "inputs": [
        {
          "indexed": true,
          "internalType": "address",
          "name": "owner",
          "type": "address"
        },
        {
          "indexed": true,
          "internalType": "address",
          "name": "spender",
          "type": "address"
        },
        {
          "indexed": false,
          "internalType": "uint256",
          "name": "value",
          "type": "uint256"
        }
      ],
      "name": "Approval",
      "type": "event"
    },
    {
      "anonymous": false,
      "inputs": [
        {
          "indexed": true,
          "internalType": "address",
          "name": "previousOwner",
          "type": "address"
        },
        {
          "indexed": true,
          "internalType": "address",
          "name": "newOwner",
          "type": "address"
        }
      ],
      "name": "OwnershipTransferred",
      "type": "event"
    },
    {
      "anonymous": false,
      "inputs": [
        {
          "indexed": true,
          "internalType": "address",
          "name": "from",
          "type": "address"
        },
        {
          "indexed": true,
          "internalType": "address",
          "name": "to",
          "type": "address"
        },
        {
          "indexed": false,
          "internalType": "uint256",
          "name": "value",
          "type": "uint256"
        }
      ],
      "name": "Transfer",
      "type": "event"
    },
    {
      "inputs": [],
      "name": "_decimals",
      "outputs": [
        {
          "internalType": "uint8",
          "name": "",
          "type": "uint8"
        }
      ],
      "stateMutability": "view",
      "type": "function"
    },
    {
      "inputs": [],
      "name": "_name",
      "outputs": [
        {
          "internalType": "string",
          "name": "",
          "type": "string"
        }
      ],
      "stateMutability": "view",
      "type": "function"
    },
    {
      "inputs": [],
      "name": "_symbol",
      "outputs": [
        {
          "internalType": "string",
          "name": "",
          "type": "string"
        }
      ],
      "stateMutability": "view",
      "type": "function"
    },
    {
      "inputs": [
        {
          "internalType": "address",
          "name": "_owner",
          "type": "address"
        },
        {
          "internalType": "address",
          "name": "spender",
          "type": "address"
        }
      ],
      "name": "allowance",
      "outputs": [
        {
          "internalType": "uint256",
          "name": "",
          "type": "uint256"
        }
      ],
      "stateMutability": "view",
      "type": "function"
    },
    {
      "inputs": [
        {
          "internalType": "address",
          "name": "spender",
          "type": "address"
        },
        {
          "internalType": "uint256",
          "name": "amount",
          "type": "uint256"
        }
      ],
      "name": "approve",
      "outputs": [
        {
          "internalType": "bool",
          "name": "",
          "type": "bool"
        }
      ],
      "stateMutability": "nonpayable",
      "type": "function"
    },
    {
      "inputs": [
        {
          "internalType": "address",
          "name": "account",
          "type": "address"
        }
      ],
      "name": "balanceOf",
      "outputs": [
        {
          "internalType": "uint256",
          "name": "",
          "type": "uint256"
        }
      ],
      "stateMutability": "view",
      "type": "function"
    },
    {
      "inputs": [
        {
          "internalType": "address",
          "name": "",
          "type": "address"
        }
      ],
      "name": "balances",
      "outputs": [
        {
          "internalType": "uint256",
          "name": "",
          "type": "uint256"
        }
      ],
      "stateMutability": "view",
      "type": "function"
    },
    {
      "inputs": [],
      "name": "decimals",
      "outputs": [
        {
          "internalType": "uint8",
          "name": "",
          "type": "uint8"
        }
      ],
      "stateMutability": "view",
      "type": "function"
    },
    {
      "inputs": [
        {
          "internalType": "address",
          "name": "account",
          "type": "address"
        }
      ],
      "name": "isVerified",
      "outputs": [
        {
          "internalType": "bool",
          "name": "",
          "type": "bool"
        }
      ],
      "stateMutability": "view",
      "type": "function"
    },
    {
      "inputs": [],
      "name": "name",
      "outputs": [
        {
          "internalType": "string",
          "name": "",
          "type": "string"
        }
      ],
      "stateMutability": "view",
      "type": "function"
    },
    {
      "inputs": [],
      "name": "owner",
      "outputs": [
        {
          "internalType": "address",
          "name": "",
          "type": "address"
        }
      ],
      "stateMutability": "view",
      "type": "function"
    },
    {
      "inputs": [],
      "name": "symbol",
      "outputs": [
        {
          "internalType": "string",
          "name": "",
          "type": "string"
        }
      ],
      "stateMutability": "view",
      "type": "function"
    },
    {
      "inputs": [],
      "name": "totalSupply",
      "outputs": [
        {
          "internalType": "uint256",
          "name": "",
          "type": "uint256"
        }
      ],
      "stateMutability": "view",
      "type": "function"
    },
    {
      "inputs": [
        {
          "internalType": "address",
          "name": "recipient",
          "type": "address"
        },
        {
          "internalType": "uint256",
          "name": "amount",
          "type": "uint256"
        }
      ],
      "name": "transfer",
      "outputs": [
        {
          "internalType": "bool",
          "name": "",
          "type": "bool"
        }
      ],
      "stateMutability": "nonpayable",
      "type": "function"
    },
    {
      "inputs": [
        {
          "internalType": "address",
          "name": "sender",
          "type": "address"
        },
        {
          "internalType": "address",
          "name": "recipient",
          "type": "address"
        },
        {
          "internalType": "uint256",
          "name": "amount",
          "type": "uint256"
        }
      ],
      "name": "transferFrom",
      "outputs": [
        {
          "internalType": "bool",
          "name": "",
          "type": "bool"
        }
      ],
      "stateMutability": "nonpayable",
      "type": "function"
    },
    {
      "inputs": [
        {
          "internalType": "address",
          "name": "account",
          "type": "address"
        }
      ],
      "name": "verifyAccount",
      "outputs": [],
      "stateMutability": "nonpayable",
      "type": "function"
    }
  ],
  "bytecode": "0x60806040526040518060400160405280600c81526020017f4e616b616d6f746f436f696e0000000000000000000000000000000000000000815250600090816200004a919062000456565b506040518060400160405280600481526020017f4e4b4d54000000000000000000000000000000000000000000000000000000008152506001908162000091919062000456565b506012600260006101000a81548160ff021916908360ff160217905550348015620000bb57600080fd5b5060405162001e7738038062001e778339818101604052810190620000e1919062000573565b33600460006101000a81548173ffffffffffffffffffffffffffffffffffffffff021916908373ffffffffffffffffffffffffffffffffffffffff1602179055508060038190555080600560003373ffffffffffffffffffffffffffffffffffffffff1673ffffffffffffffffffffffffffffffffffffffff168152602001908152602001600020819055503373ffffffffffffffffffffffffffffffffffffffff16600073ffffffffffffffffffffffffffffffffffffffff167fddf252ad1be2c89b69c2b068fc378daa952ba7f163c4a11628f55a4df523b3ef83604051620001cd9190620005b6565b60405180910390a350620005d3565b600081519050919050565b7f4e487b7100000000000000000000000000000000000000000000000000000000600052604160045260246000fd5b7f4e487b7100000000000000000000000000000000000000000000000000000000600052602260045260246000fd5b600060028204905060018216806200025e57607f821691505b60208210810362000274576200027362000216565b5b50919050565b60008190508160005260206000209050919050565b60006020601f8301049050919050565b600082821b905092915050565b600060088302620002de7fffffffffffffffffffffffffffffffffffffffffffffffffffffffffffffffff826200029f565b620002ea86836200029f565b95508019841693508086168417925050509392505050565b6000819050919050565b6000819050919050565b600062000337620003316200032b8462000302565b6200030c565b62000302565b9050919050565b6000819050919050565b620003538362000316565b6200036b62000362826200033e565b848454620002ac565b825550505050565b600090565b6200038262000373565b6200038f81848462000348565b505050565b5b81811015620003b757620003ab60008262000378565b60018101905062000395565b5050565b601f8211156200040657620003d0816200027a565b620003db846200028f565b81016020851015620003eb578190505b62000403620003fa856200028f565b83018262000394565b50505b505050565b600082821c905092915050565b60006200042b600019846008026200040b565b1980831691505092915050565b600062000446838362000418565b9150826002028217905092915050565b6200046182620001dc565b67ffffffffffffffff8111156200047d576200047c620001e7565b5b62000489825462000245565b62000496828285620003bb565b600060209050601f831160018114620004ce5760008415620004b9578287015190505b620004c5858262000438565b86555062000535565b601f198416620004de866200027a565b60005b828110156200050857848901518255600182019150602085019450602081019050620004e1565b8683101562000528578489015162000524601f89168262000418565b8355505b6001600288020188555050505b505050505050565b600080fd5b6200054d8162000302565b81146200055957600080fd5b50565b6000815190506200056d8162000542565b92915050565b6000602082840312156200058c576200058b6200053d565b5b60006200059c848285016200055c565b91505092915050565b620005b08162000302565b82525050565b6000602082019050620005cd6000830184620005a5565b92915050565b61189480620005e36000396000f3fe608060405234801561001057600080fd5b50600436106101005760003560e01c80638da5cb5b11610097578063b9209e3311610066578063b9209e33146102c7578063d28d8852146102f7578063dd62ed3e14610315578063f16dfbe91461034557610100565b80638da5cb5b1461023d57806395d89b411461025b578063a9059cbb14610279578063b09f1266146102a957610100565b806327e235e3116100d357806327e235e3146101a1578063313ce567146101d157806332424aa3146101ef57806370a082311461020d57610100565b806306fdde0314610105578063095ea7b31461012357806318160ddd1461015357806323b872dd14610171575b600080fd5b61010d610361565b60405161011a9190611078565b60405180910390f35b61013d60048036038101906101389190611133565b6103f3565b60405161014a919061118e565b60405180910390f35b61015b61040a565b60405161016891906111b8565b60405180910390f35b61018b600480360381019061018691906111d3565b610410565b604051610198919061118e565b60405180910390f35b6101bb60048036038101906101b69190611226565b6105ba565b6040516101c891906111b8565b60405180910390f35b6101d96105d2565b6040516101e6919061126f565b60405180910390f35b6101f76105e9565b604051610204919061126f565b60405180910390f35b61022760048036038101906102229190611226565b6105fc565b60405161023491906111b8565b60405180910390f35b610245610645565b6040516102529190611299565b60405180910390f35b61026361066b565b6040516102709190611078565b60405180910390f35b610293600480360381019061028e9190611133565b6106fd565b6040516102a0919061118e565b60405180910390f35b6102b161076c565b6040516102be9190611078565b60405180910390f35b6102e160048036038101906102dc9190611226565b6107fa565b6040516102ee919061118e565b60405180910390f35b6102ff610850565b60405161030c9190611078565b60405180910390f35b61032f600480360381019061032a91906112b4565b6108de565b60405161033c91906111b8565b60405180910390f35b61035f600480360381019061035a9190611226565b610965565b005b60606000805461037090611323565b80601f016020809104026020016040519081016040528092919081815260200182805461039c90611323565b80156103e95780601f106103be576101008083540402835291602001916103e9565b820191906000526020600020905b8154815290600101906020018083116103cc57829003601f168201915b5050505050905090565b6000610400338484610b8f565b6001905092915050565b60035481565b6000600460009054906101000a900473ffffffffffffffffffffffffffffffffffffffff1673ffffffffffffffffffffffffffffffffffffffff163373ffffffffffffffffffffffffffffffffffffffff16146104c95761046f6105d2565b600a61047b91906114b6565b60016104879190611501565b82146104c8576040517f08c379a00000000000000000000000000000000000000000000000000000000081526004016104bf906115b5565b60405180910390fd5b5b6000600660008673ffffffffffffffffffffffffffffffffffffffff1673ffffffffffffffffffffffffffffffffffffffff16815260200190815260200160002060003373ffffffffffffffffffffffffffffffffffffffff1673ffffffffffffffffffffffffffffffffffffffff1681526020019081526020016000205490508281101561058d576040517f08c379a000000000000000000000000000000000000000000000000000000000815260040161058490611647565b60405180910390fd5b610598858585610d58565b6105ae853385846105a99190611667565b610b8f565b60019150509392505050565b60056020528060005260406000206000915090505481565b6000600260009054906101000a900460ff16905090565b600260009054906101000a900460ff1681565b6000600560008373ffffffffffffffffffffffffffffffffffffffff1673ffffffffffffffffffffffffffffffffffffffff168152602001908152602001600020549050919050565b600460009054906101000a900473ffffffffffffffffffffffffffffffffffffffff1681565b60606001805461067a90611323565b80601f01602080910402602001604051908101604052809291908181526020018280546106a690611323565b80156106f35780601f106106c8576101008083540402835291602001916106f3565b820191906000526020600020905b8154815290600101906020018083116106d657829003601f168201915b5050505050905090565b60006107076105d2565b600a61071391906114b6565b600161071f9190611501565b8214610757576040517fdbb80f6900000000000000000000000000000000000000000000000000000000815260040160405180910390fd5b610762338484610d58565b6001905092915050565b6001805461077990611323565b80601f01602080910402602001604051908101604052809291908181526020018280546107a590611323565b80156107f25780601f106107c7576101008083540402835291602001916107f2565b820191906000526020600020905b8154815290600101906020018083116107d557829003601f168201915b505050505081565b6000600760008373ffffffffffffffffffffffffffffffffffffffff1673ffffffffffffffffffffffffffffffffffffffff16815260200190815260200160002060009054906101000a900460ff169050919050565b6000805461085d90611323565b80601f016020809104026020016040519081016040528092919081815260200182805461088990611323565b80156108d65780601f106108ab576101008083540402835291602001916108d6565b820191906000526020600020905b8154815290600101906020018083116108b957829003601f168201915b505050505081565b6000600660008473ffffffffffffffffffffffffffffffffffffffff1673ffffffffffffffffffffffffffffffffffffffff16815260200190815260200160002060008373ffffffffffffffffffffffffffffffffffffffff1673ffffffffffffffffffffffffffffffffffffffff16815260200190815260200160002054905092915050565b600760008273ffffffffffffffffffffffffffffffffffffffff1673ffffffffffffffffffffffffffffffffffffffff16815260200190815260200160002060009054906101000a900460ff16156109e9576040517f3b2f292500000000000000000000000000000000000000000000000000000000815260040160405180910390fd5b6001600760008373ffffffffffffffffffffffffffffffffffffffff1673ffffffffffffffffffffffffffffffffffffffff16815260200190815260200160002060006101000a81548160ff021916908315150217905550600860008273ffffffffffffffffffffffffffffffffffffffff1673ffffffffffffffffffffffffffffffffffffffff16815260200190815260200160002060009054906101000a900460ff16610b8c576012600a610aa0919061169b565b600a610aac9190611501565b600560008373ffffffffffffffffffffffffffffffffffffffff1673ffffffffffffffffffffffffffffffffffffffff1681526020019081526020016000206000828254610afa91906116e6565b925050819055506001600860008373ffffffffffffffffffffffffffffffffffffffff1673ffffffffffffffffffffffffffffffffffffffff16815260200190815260200160002060006101000a81548160ff0219169083151502179055506012600a610b67919061169b565b600a610b739190611501565b60036000828254610b8491906116e6565b925050819055505b50565b600073ffffffffffffffffffffffffffffffffffffffff168373ffffffffffffffffffffffffffffffffffffffff1603610bfe576040517f08c379a0000000000000000000000000000000000000000000000000000000008152600401610bf590611766565b60405180910390fd5b600073ffffffffffffffffffffffffffffffffffffffff168273ffffffffffffffffffffffffffffffffffffffff1603610c6d576040517f08c379a0000000000000000000000000000000000000000000000000000000008152600401610c64906117d2565b60405180910390fd5b80600660008573ffffffffffffffffffffffffffffffffffffffff1673ffffffffffffffffffffffffffffffffffffffff16815260200190815260200160002060008473ffffffffffffffffffffffffffffffffffffffff1673ffffffffffffffffffffffffffffffffffffffff168152602001908152602001600020819055508173ffffffffffffffffffffffffffffffffffffffff168373ffffffffffffffffffffffffffffffffffffffff167f8c5be1e5ebec7d5bd14f71427d1e84f3dd0314c0f7b2291e5b200ac8c7c3b92583604051610d4b91906111b8565b60405180910390a3505050565b600073ffffffffffffffffffffffffffffffffffffffff168373ffffffffffffffffffffffffffffffffffffffff161480610dbf5750600073ffffffffffffffffffffffffffffffffffffffff168273ffffffffffffffffffffffffffffffffffffffff16145b15610df6576040517fe6c4247b00000000000000000000000000000000000000000000000000000000815260040160405180910390fd5b600760008473ffffffffffffffffffffffffffffffffffffffff1673ffffffffffffffffffffffffffffffffffffffff16815260200190815260200160002060009054906101000a900460ff16610e5157610e5083610965565b5b6000600560008573ffffffffffffffffffffffffffffffffffffffff1673ffffffffffffffffffffffffffffffffffffffff16815260200190815260200160002054905081811015610ed8576040517f08c379a0000000000000000000000000000000000000000000000000000000008152600401610ecf9061183e565b60405180910390fd5b8181610ee49190611667565b600560008673ffffffffffffffffffffffffffffffffffffffff1673ffffffffffffffffffffffffffffffffffffffff1681526020019081526020016000208190555081600560008573ffffffffffffffffffffffffffffffffffffffff1673ffffffffffffffffffffffffffffffffffffffff1681526020019081526020016000206000828254610f7691906116e6565b925050819055508273ffffffffffffffffffffffffffffffffffffffff168473ffffffffffffffffffffffffffffffffffffffff167fddf252ad1be2c89b69c2b068fc378daa952ba7f163c4a11628f55a4df523b3ef84604051610fda91906111b8565b60405180910390a350505050565b600081519050919050565b600082825260208201905092915050565b60005b83811015611022578082015181840152602081019050611007565b60008484015250505050565b6000601f19601f8301169050919050565b600061104a82610fe8565b6110548185610ff3565b9350611064818560208601611004565b61106d8161102e565b840191505092915050565b60006020820190508181036000830152611092818461103f565b905092915050565b600080fd5b600073ffffffffffffffffffffffffffffffffffffffff82169050919050565b60006110ca8261109f565b9050919050565b6110da816110bf565b81146110e557600080fd5b50565b6000813590506110f7816110d1565b92915050565b6000819050919050565b611110816110fd565b811461111b57600080fd5b50565b60008135905061112d81611107565b92915050565b6000806040838503121561114a5761114961109a565b5b6000611158858286016110e8565b92505060206111698582860161111e565b9150509250929050565b60008115159050919050565b61118881611173565b82525050565b60006020820190506111a3600083018461117f565b92915050565b6111b2816110fd565b82525050565b60006020820190506111cd60008301846111a9565b92915050565b6000806000606084860312156111ec576111eb61109a565b5b60006111fa868287016110e8565b935050602061120b868287016110e8565b925050604061121c8682870161111e565b9150509250925092565b60006020828403121561123c5761123b61109a565b5b600061124a848285016110e8565b91505092915050565b600060ff82169050919050565b61126981611253565b82525050565b60006020820190506112846000830184611260565b92915050565b611293816110bf565b82525050565b60006020820190506112ae600083018461128a565b92915050565b600080604083850312156112cb576112ca61109a565b5b60006112d9858286016110e8565b92505060206112ea858286016110e8565b9150509250929050565b7f4e487b7100000000000000000000000000000000000000000000000000000000600052602260045260246000fd5b6000600282049050600182168061133b57607f821691505b60208210810361134e5761134d6112f4565b5b50919050565b7f4e487b7100000000000000000000000000000000000000000000000000000000600052601160045260246000fd5b60008160011c9050919050565b6000808291508390505b60018511156113da578086048111156113b6576113b5611354565b5b60018516156113c55780820291505b80810290506113d385611383565b945061139a565b94509492505050565b6000826113f357600190506114af565b8161140157600090506114af565b8160018114611417576002811461142157611450565b60019150506114af565b60ff84111561143357611432611354565b5b8360020a91508482111561144a57611449611354565b5b506114af565b5060208310610133831016604e8410600b84101617156114855782820a9050838111156114805761147f611354565b5b6114af565b6114928484846001611390565b925090508184048111156114a9576114a8611354565b5b81810290505b9392505050565b60006114c1826110fd565b91506114cc83611253565b92506114f97fffffffffffffffffffffffffffffffffffffffffffffffffffffffffffffffff84846113e3565b905092915050565b600061150c826110fd565b9150611517836110fd565b9250828202611525816110fd565b9150828204841483151761153c5761153b611354565b5b5092915050565b7f596f752063616e206f6e6c79207472616e736665722031204e4b4d542061742060008201527f612074696d650000000000000000000000000000000000000000000000000000602082015250565b600061159f602683610ff3565b91506115aa82611543565b604082019050919050565b600060208201905081810360008301526115ce81611592565b9050919050565b7f5472616e7366657220616d6f756e74206578636565647320616c6c6f77616e6360008201527f6500000000000000000000000000000000000000000000000000000000000000602082015250565b6000611631602183610ff3565b915061163c826115d5565b604082019050919050565b6000602082019050818103600083015261166081611624565b9050919050565b6000611672826110fd565b915061167d836110fd565b925082820390508181111561169557611694611354565b5b92915050565b60006116a6826110fd565b91506116b1836110fd565b92506116de7fffffffffffffffffffffffffffffffffffffffffffffffffffffffffffffffff84846113e3565b905092915050565b60006116f1826110fd565b91506116fc836110fd565b925082820190508082111561171457611713611354565b5b92915050565b7f417070726f76652066726f6d20746865207a65726f2061646472657373000000600082015250565b6000611750601d83610ff3565b915061175b8261171a565b602082019050919050565b6000602082019050818103600083015261177f81611743565b9050919050565b7f417070726f766520746f20746865207a65726f20616464726573730000000000600082015250565b60006117bc601b83610ff3565b91506117c782611786565b602082019050919050565b600060208201905081810360008301526117eb816117af565b9050919050565b7f5472616e7366657220616d6f756e7420657863656564732062616c616e636500600082015250565b6000611828601f83610ff3565b9150611833826117f2565b602082019050919050565b600060208201905081810360008301526118578161181b565b905091905056fea26469706673582212207a60d844ef0197b51e1b5a2d698b420aca914776deec3eac59d693072cf02c7c64736f6c63430008180033",
  "linkReferences": {},
  "deployedLinkReferences": {}
}